:1000000013C022C021C020C01FC01EC01DC01CC004
:100010001BC01AC019C018C017C016C015C014C024
:1000200013C012C011C010C011241FBECFEFD1E009
:10003000DEBFCDBF21E0A0E0B1E001C01D92A13044
:10004000B207E1F7C2D1F7C1DBCF8091000182FB9B
:10005000332730F983FF18C022E080FF18C094E0F6
:1000600085B1887F832B822B892B85B980910001F4
:1000700084FF0FC020E481FD0FC090E08BB18F732F
:10008000822B892B8BB9089520E080FDE8CF90E08A
:10009000E7CF20E081FFF1CF90E88BB18F73822B07
:1000A000892B8BB9089520910001207F2F7E20930A
:1000B00000019A0157FD5CC0FC0197FD54C0E21796
:1000C000F3071CF5FB0177FD6BC0E217F307ECF4B7
:1000D00014161506D4F42091000124602093000129
:1000E0008B3091050CF049C0863F9F4F24F421606E
:1000F0002B7F209300016B3071050CF446C080917A
:10010000000188608B7F809300018091000182FB59
:10011000332730F983FF18C022E080FF18C094E035
:1001200085B1887F832B822B892B85B98091000133
:1001300084FF0FC020E481FD0FC090E08BB18F736E
:10014000822B892B8BB9089520E080FDE8CF90E0C9
:10015000E7CF20E081FFF1CF90E88BB18F73822B46
:10016000892B8BB90895EE27FF27E81BF90BA7CF42
:1001700022273327241B350B9FCF20612B7F209311
:1001800000016B3071050CF0BACF663F7F4F0CF069
:10019000BCCF8091000182608B7F80930001B5CF3E
:1001A000EE27FF27E61BF70BE217F3070CF490CFBF
:1001B000ACCFEF92FF920F931F93CF93DF9300D0BA
:1001C00000D000D0CDB7DEB78AE388D081E0D7D0A9
:1001D0008BE3ABD08E010F5F1F4F7E0186E0E80EF0
:1001E000F11CDFD0F80181938F01EE15FF05C9F7EF
:1001F000E2D0582F8A8182958695869583702981D1
:1002000030E0220F331F220F331F282B31FF3BC05A
:1002100080E09CEF822B932B4C814295469546952E
:1002200043702B8130E0220F331F220F331F242B0A
:1002300031FF23C060E07CEF622B732B452F42958A
:100240004695469543702D8130E0220F331F220FD3
:10025000331F242B31FD14C040E050E0422B532BC0
:1002600026960FB6F894DEBF0FBECDBFDF91CF91BB
:100270001F910F91FF90EF9016CF60E070E0DCCF00
:1002800040E05CEFEBCF80E090E0C4CF1092B9008B
:1002900080E28093B800089594EA9093BC00909116
:1002A000BC0097FFFCCF9091B900987F983021F067
:1002B000903111F081E008958093BB0084E8809331
:1002C000BC008091BC0087FFFCCF8091B900887F83
:1002D000883111F0803471F780E0089524EA34E821
:1002E00044E92093BC009091BC0097FFFCCF909113
:1002F000B900987F983011F0903199F78093BB0046
:100300003093BC009091BC0097FFFCCF9091B90056
:10031000987F903219F0983509F008954093BC0009
:100320009091BC0094FDFCCFDCCF94EA9093BC008C
:100330009091BC0097FFFCCF9091B900987F9830C6
:1003400021F0903111F081E008958093BB0084E8A2
:100350008093BC008091BC0087FFFCCF8091B900E6
:10036000887F883111F0803471F780E0089584E946
:100370008093BC008091BC0084FDFCCF08958093E5
:10038000BB0084E88093BC008091BC0087FFFCCF59
:100390009091B900987F81E0983209F0089580E04B
:1003A000089584EC8093BC008091BC0087FFFCCF53
:1003B0008091BB00089584E88093BC008091BC00CC
:1003C00087FFFCCF8091BB000895CF93DF931F92EE
:1003D000CDB7DEB784B1876084B98AB1806C8AB941
:1003E000809100018F608061809300012EDE8FE09C
:1003F00097E20197F1F700C0000048DF809100010B
:10040000807F8F7E8093000120DE8AE367DF8AE2AF
:10041000B6DF81E0B4DFABDF8AE360DF80E0AFDF2F
:100420008BE383DFC8DF8983A2DF89818770873010
:0A04300099F7BFDEF1CFF894FFCF7B
:00000001FF
