:1000000013C022C021C020C01FC01EC01DC01CC004
:100010001BC01AC019C018C03BC263C2DDC114C0E6
:1000200013C012C011C010C011241FBECFEFD1E009
:10003000DEBFCDBF21E0A0E0B1E001C01D92A5363A
:10004000B207E1F7F4D27EC3DBCF8091620182FB7D
:10005000332730F983FF02C022E001C020E080FF97
:1000600002C094E001C090E085B1887F832B822B91
:10007000892B85B98091620184FF02C020E401C010
:1000800020E081FF02C090E801C090E08BB18F7347
:10009000822B892B8BB908959B01FC0197FF04C02B
:1000A000EE27FF27E81BF90BB90137FF04C06627CD
:1000B0007727621B730BDA0157FF04C0AA27BB27FF
:1000C000A41BB50BAE17BF075CF46E177F0744F493
:1000D000181619069CF488279927841B950B0FC0C6
:1000E000E617F70794F4A617B7077CF41216130661
:1000F0004CF422273327241B350B05C0CA0120E00E
:1001000030E003C09A0180E090E060916201AC01B0
:10011000465F5F4F4531510520F06B7F6093620170
:1001200004C0462F446040936201A901465F5F4FBF
:100130004531510528F0409162014B7F40936201A7
:1001400063E070E0B0D2FC01C90163E070E0ABD2C3
:10015000222733272E1B3F0B2038310514F02EE7C2
:1001600004C020383F4F24F420E8209363010DC0E1
:100170002E2F2195253114F02CEE03C02C3E1CF4BB
:1001800024E12E1BF2CF109263018038910514F008
:100190008EE70DC080382FEF920714F480E807C077
:1001A000853114F0845103C08C3E24F48C5E80931E
:1001B000640108951092640108954F925F926F92C6
:1001C0007F928F929F92AF92BF92CF92DF92EF92E7
:1001D000FF920F931F93CF93DF9300D000D0CDB742
:1001E000DEB7E0916001F09161019F01220F331FA2
:1001F000D901A05CBE4F8D939C93D901A05EBE4FE8
:100200006D937C93D901A050BF4F4D935C93319671
:10021000E031F1052CF4F0936101E093600104C03A
:100220001092610110926001E0E4F1E040E251E0DF
:1002300000E011E060E070E0CB01812C912C5401D2
:10024000C12CD12C7601219131912901662457FCD2
:100250006094762CC40CD51CE61CF71CDA012D9199
:100260003D91AD012901662457FC6094762C840CE5
:10027000951CA61CB71CD8012D913D918D0129011B
:10028000662457FC6094762C640D751D861D971DA1
:10029000B1E0E036FB07B9F620E1422E512C612C8B
:1002A000712CA301920110D229833A834B835C8382
:1002B000C501B401A301920107D249015A01C70146
:1002C000B601A301920100D2DA01C90149815A8124
:1002D000B4010F900F900F900F90DF91CF911F916D
:1002E0000F91FF90EF90DF90CF90BF90AF909F90D5
:1002F0008F907F906F905F904F90CECE0F931F9313
:10030000CF93DF9300D000D000D0CDB7DEB78AE323
:1003100039D181E067D18BE35CD100E010E005309A
:10032000110519F47AD18E8308C06DD1E1E0F0E0B7
:10033000EC0FFD1FE00FF11F80830F5F1F4F063092
:10034000110569F72A8122952695269523708981C2
:1003500090E0880F991F880F991F822B91FF03C08F
:1003600020E03CEF02C020E030E0822B932B4C8158
:1003700042954695469543702B8130E0220F331FFE
:10038000220F331F242B31FF03C060E07CEF02C03B
:1003900060E070E0622B732B4E8142954695469546
:1003A00043702D8130E0220F331F220F331F242B87
:1003B00031FF03C040E05CEF02C040E050E0422B60
:1003C000532B26960FB6F894DEBF0FBECDBFDF913C
:1003D000CF911F910F91F1CE1F920F920FB60F92F6
:1003E00011242F933F934F935F936F937F938F933A
:1003F0009F93AF93BF93EF93FF939091630181E03D
:1004000019160CF080E02091620180FB20F98091A8
:100410006401382F331F3327331F30FB21F920931A
:10042000620121E018160CF020E08091620120FBAF
:1004300083F9991F9927991F90FB84F98093620192
:1004400004DE80916301992787FD909597FF03C093
:1004500091958195910987BD80916401992787FDC8
:10046000909597FF03C091958195910988BDFF9163
:10047000EF91BF91AF919F918F917F916F915F911C
:100480004F913F912F910F900FBE0F901F90189595
:100490001F920F920FB60F9211242F933F934F93F9
:1004A0005F936F937F938F939F93AF93BF93EF93DC
:1004B000FF93809162018E7F8F7E80936201C5DD04
:1004C000FF91EF91BF91AF919F918F917F916F912C
:1004D0005F914F913F912F910F900FBE0F901F9002
:1004E00018951F920F920FB60F9211242F933F93DE
:1004F0004F935F936F937F938F939F93AF93BF932C
:10050000EF93FF93809162018D7F877F80936201DB
:100510009CDDFF91EF91BF91AF919F918F917F9162
:100520006F915F914F913F912F910F900FBE0F9060
:100530001F9018951092B90080E28093B80008953A
:1005400094EA9093BC009091BC0097FFFCCF9091EF
:10055000B900987F983021F0903111F081E0089532
:100560008093BB0084E88093BC008091BC0087FF2F
:10057000FCCF8091B900887F883111F0803471F709
:1005800080E0089524EA34E844E92093BC00909187
:10059000BC0097FFFCCF9091B900987F983011F084
:1005A000903199F78093BB003093BC009091BC00D0
:1005B00097FFFCCF9091B900987F903211F0983559
:1005C00039F44093BC009091BC0094FDFCCFDDCF8A
:1005D0000895B6CF84E98093BC008091BC0084FD6F
:1005E000FCCF08958093BB0084E88093BC00809189
:1005F000BC0087FFFCCF9091B900987F81E09832D2
:1006000009F480E0089584EC8093BC008091BC00E4
:1006100087FFFCCF8091BB00089584E88093BC00E5
:100620008091BC0087FFFCCF8091BB000895CF93E1
:10063000DF931F92CDB7DEB784B1876084B98AB1EA
:10064000806C8AB983E085BD87E080936E007894E2
:10065000809162018F60806180936201F6DC8FE09F
:1006600097E20197F1F700C0000064DF809162011A
:10067000807F8F7E80936201E8DC8AE383DF8AE2F9
:10068000B1DF81E0AFDFA6DF8AE37CDF80E0AADFB5
:100690008BE39FDFC2DF89839DDF8981877087308D
:1006A00099F72CDEF1CF0024552704C0080E591FFE
:1006B000880F991F009729F076956795B8F3710513
:1006C000B9F7802D952F0895052E97FB16F4009409
:1006D0000FD057FD05D014D007FC02D046F408C057
:1006E00050954095309521953F4F4F4F5F4F08955E
:1006F00090958095709561957F4F8F4F9F4F08958E
:10070000A1E21A2EAA1BBB1BFD010DC0AA1FBB1F15
:10071000EE1FFF1FA217B307E407F50720F0A21B87
:10072000B30BE40BF50B661F771F881F991F1A94F4
:1007300069F760957095809590959B01AC01BD011E
:08074000CF010895F894FFCFEA
:00000001FF
